:100000000A128A110E280134FE00030EF0000A08BD
:10001000F1007F08F2000A168A11DE2E0A128A11F8
:1000200011288313E730FD001130FE00DA30FF00A5
:10003000CB3084000A168A15DC270A128A110A12AC
:100040008A1103200A128A11D3000A128A11FD278D
:100050000A128A11F8000A128A11FE270A128A115E
:10006000F9000A128A11FF270A128A11FA00A03039
:100070008400CB300A168A154A270A128A113F30AB
:10008000840053300A168A154A270A128A118301FE
:100090000A128A114B28831603136108831603176B
:1000A000A60083160313620883160317A70083169E
:1000B0000313630883160317A800AE01AE0A90303D
:1000C0008400CB3083120313BB000408BC000C3047
:1000D000BD003B08840083130008BE00BB0A3C0837
:1000E000840083173E088000BC0ABD0B6928831674
:1000F0000317A901A401A501AA01AB010A168A11DF
:100100007F240A128A11AA30F6009130F7000030DD
:100110000A168A1147230A128A11A6308312031382
:10012000A4000130A500A6010A168A112B260A1286
:100130008A110A3083120313A0000030A1000A16AE
:100140008A15B3270A128A11740883120313A300B5
:100150007308A2000A168A11F4240A128A11831263
:100160000313200883160317AC0064302C02031C11
:10017000BA28BB28BD286330AC0001300A168A11AA
:100180009C220A128A1183160317AF0064309C0068
:1001900000309D00FF309C0703189D0AFF309D072B
:1001A0001C0A031DD7281D0A031DD728D828CA28D2
:1001B000072900300A168A119C220A128A11831616
:1001C0000317AF0064309E0000309F00FF309E0791
:1001D00003189F0AFF309F071E0A031DF3281F0AFA
:1001E000031DF328F428E6280130AA070318AB0AF8
:1001F0000030AB0789302A06133003192B06031D84
:10020000022903290729AA01AB011130AF003730B9
:100210002F0603190C290D29D9282B08803AFF0035
:1002200093307F02031D162988302A0203181929EA
:100230001A295E29831603172B08803AFF008030A5
:100240007F02031D252901302A02031C28292929A0
:100250005E29373083160317AF00AA01AB015E2970
:1002600000300A168A119C220A128A11831603177B
:10027000AF006430A0000030A100FF30A0070318D9
:10028000A10AFF30A107200A031D4A29210A031DE4
:100290004A294B293D290130AA070318AB0A00302F
:1002A000AB0789302A06133003192B06031D592981
:1002B0005A295E29AA01AB012230AF002F308316E4
:1002C00003172F0603196529662930292B08803A60
:1002D000FF0093307F02031D6F2988302A02031824
:1002E000722973298829831603172B08803AFF0087
:1002F00080307F02031D7E2901302A02031C8129E0
:10030000822988292F3083160317AF00AA01AB0179
:10031000643083160317A3000130A302230A031DD0
:10032000922993298C293E302F06031D982999295B
:10033000B529B630F3009130F400A6300A168A11C0
:1003400053220A128A11A63083120313A40001302B
:10035000A500831603172C0883120313A6000A16A0
:100360008A112B260A128A11E42B3D302F06031D19
:10037000BA29BB29ED29063029020318C029C12951
:10038000ED29290883120313BB003B07903E84002C
:1003900083170008F300840A00088403F400A630E1
:1003A0000A168A1153220A128A110130FF007F08AF
:1003B00083160317A907A63083120313A400013084
:1003C000A500831603172C0883120313A6000A1630
:1003D0008A112B260A128A11E42B3B302F06031DAB
:1003E000F229F3290F2A29080319F729F8290F2AD6
:1003F0000130A902290883120313BB003B07903E7A
:10040000840083170008F300840A00088403F400C2
:10041000A6300A168A1153220A128A11DB293730B4
:100420002F060319142A152A1B2A2F302F06031D05
:100430001A2A1B2A4A2A2E03031D1F2A202A4A2A67
:100440000230AE000A168A15A1270A128A11F73067
:1004500083120313A0009030A1008130A2000A167D
:100460008A11A8230A128A11F301C4300A168A11CC
:100470000F240A128A11F3010F300A168A110F2471
:100480000A128A1183160317AD01AD0A83120313F2
:100490001215E42B04302E06031D4F2A502AE52A9C
:1004A00011302F06031D552A562AE52AD42A0A168A
:1004B0008A15A1270A128A114C3083120313A00057
:1004C0009030A1008030A2000A168A11A8230A12D7
:1004D0008A11083083160317AE000830AD00E42BF4
:1004E0002030AE00E42BC53083120313A4009130FA
:1004F000A500831603172C0883120313A6000A16FF
:100500008A112B260A128A110A168A15A1270A12A5
:100510008A11103083160317AE000430AD00E42BAF
:10052000CE3083120313A4009130A5008316031765
:100530002C0883120313A6000A168A112B260A120E
:100540008A110A168A15A1270A128A1140308316C9
:100550000317AE001030AD00E42B0A168A15A12750
:100560000A128A11803083160317AE00AD01AD0A5E
:10057000F73083120313A0009030A1008130A20055
:100580000A168A11A8230A128A11F301C4300A1626
:100590008A110F240A128A11F3010F300A168A11E8
:1005A0000F240A128A11E42B2208003A0319572A51
:1005B000013A0319702A033A0319732A013A0319FD
:1005C000902A073A0319AD2AE42B22302F06031D87
:1005D000EA2AEB2A012B04302E060319F02AF12A0D
:1005E000F72A08302E06031DF62AF72A012BAE0142
:1005F000AE0AF30101300A168A110F240A128A1179
:10060000E42B11302F06031D062B072B172B083068
:100610002E06031D0C2B0D2B172B0430AE00F301FF
:1006200001300A168A110F240A128A11E42BE42BD6
:100630002C0883120313A900A6300A168A11D425A8
:100640000A128A11002C0A168A15A1270A128A1189
:1006500083160317AE01AE0AF3010C300A168A1195
:100660000F240A128A11831203131211002C043072
:1006700083160317AE000530AD0099282D088312AC
:100680000313A900831603172F080A128A15AE2335
:100690000A128A11013A0319372B023A0319232B44
:1006A000002C2D0883120313A900831603172F08AB
:1006B0000A128A1108270A128A1183160317A20048
:1006C000002C2D0883120313A900831603172F088B
:1006D0000A128A155A210A128A11002C0A128A1546
:1006E00064220A128A110A168A15A1270A128A118F
:1006F000043083160317AE000530AD00002C2D0822
:100700000A128A11C0270A128A11113A031D892B75
:100710008A2B002C0A168A15A1270A128A11043086
:1007200083160317AE000530AD0099282D088312FB
:100730000313A900831603172F080A128A1107242E
:100740000A128A11113A031DA62BA72BAD2B643078
:1007500083160317A4000030A5008316031725088D
:10076000803AFF0080307F02031DB82B0130240245
:10077000031CBB2BBC2B002CFF3083160317A407D4
:100780000318A50AFF30A50724082504031DC92B5B
:10079000CA2B002C0430AE000530AD000A168A15B5
:1007A000A1270A128A1199282D0883120313A90080
:1007B000831603172F080A128A1556250A128A1162
:1007C00083160317AE00002C831603172E08013A78
:1007D0000319182B033A03193E2B063A0319512B20
:1007E0000C3A0319612B183A03197F2B303A03197D
:1007F0006E2B603A0319962BC03A0319D42B002CA8
:1008000083160317AD0199280A128A110E28831244
:100810000313AD0010302906031D0F2C102C9F2C44
:100820000A168A119D270A128A110F3083160313A4
:10083000330583120313AA008316031332080F39FA
:1008400083120313AB00AC012B08F3002C08F40057
:100850000A30F5000030F6000A168A11F1220A1259
:100860008A11831203132A087307BF00003003188C
:1008700001307407C0000F3083160313350583124F
:100880000313AA008316031334080F3983120313CA
:10089000AB00AC012B08F3002C08F4000A30F50083
:1008A0000030F6000A168A11F1220A128A11831208
:1008B00003132A087307C1000030031801307407BE
:1008C000C2000F3083160313370583120313AA00E7
:1008D0008316031336080F3983120313AB00AC01E0
:1008E0002B08F3002C08F4000A30F5000030F60065
:1008F0000A168A11F1220A128A11831203132A0896
:100900007307C3000030031801307407C4005D3062
:10091000A0009030A1008030A2000A168A11A823FE
:100920000A128A11023083160313A2000030A300BA
:1009300083120313CF01CE013F30AD00CD014D082E
:100940000319A32CA42CDB2D2230072F83160313AD
:10095000220883120313AA002A073F3E84000130B5
:1009600083138007840A0318800AE62D0330F300FE
:100970000030F400831603132208013EF50023081B
:100980000318013E003EF6000A168A1183260A1259
:100990008A11740883160313A3007308A200E62DBE
:1009A0000A168A119D270A128A110A30F3000030B4
:1009B000F400831203134008F6003F08F5000A16FE
:1009C0008A1145240A128A11730883120313AA009C
:1009D0007408AB000A30A0000030A1004008A3005A
:1009E0003F08A2000A168A11F4240A128A118312FF
:1009F00003132008AC0003300310AC0DFF3E031DB1
:100A0000FC2C03102C0D2A04B2004508C039320416
:100A1000C5004508F40002300A168A1114220A1291
:100A20008A110A30F3000030F400831203134208E5
:100A3000F6004108F5000A168A1145240A128A11A7
:100A4000730883120313AA007408AB000A30A000D5
:100A50000030A1004208A3004108A2000A168A1132
:100A6000F4240A128A11831203132008AC00033005
:100A70000310AC0DFF3E031D382D03102C0D2A046E
:100A8000B200460880393204C6004608F40001303E
:100A90000A168A1114220A128A110A30F300003051
:100AA000F400831203134408F6004308F5000A1605
:100AB0008A1145240A128A11730883120313AA00AB
:100AC0007408AB000A30A0000030A1004408A30065
:100AD0004308A2000A168A11F4240A128A1183120A
:100AE00003132008AC0003300310AC0DFF3E031DC0
:100AF000742D03102C0D2A04B200470880393204EB
:100B0000C7004708F40000300A168A1114220A129E
:100B10008A110A168A15A1270A128A112230831215
:100B20000313A0009130A1008230A2000A168A119E
:100B3000A8230A128A11563083120313A0009130A1
:100B4000A100C230A2000A168A11A8230A128A1133
:100B5000003083120313B1000030B0000030AF004A
:100B60000030AE00013083120313AE0700300318CB
:100B70000130AF07003003180130B0070030031810
:100B80000130B1073108031DD52D03303002031D9C
:100B9000D12D0D302F02031DD12D40302E02031D0B
:100BA000D12D031CD42DD52DB22D83120313CD01CD
:100BB000CD0A1130072F2D08113A0319D02C3E3AD7
:100BC0000319B62C183A0319A62CE62D003083120F
:100BD0004002183003193F02031CEF2DF02DF22DB7
:100BE000BF01C001003042023C3003194102031C26
:100BF000FA2DFB2DFD2DC101C201003044023C3015
:100C000003194302031C052E062E082EC301C4013E
:100C10000130FF007F08CF0733304F06031D112E30
:100C2000122EA42CCF014E080319172E192E0130B5
:100C30001A2E0030CE00C030A7000A30A0000030CD
:100C4000A1004008A3003F08A2000A168A11F4245C
:100C50000A128A11831203132008303E0A168A15DD
:100C6000EB270A128A11C13083120313A7000A303E
:100C7000F3000030F4004008F6003F08F5000A16C3
:100C80008A1145240A128A117308303E0A168A1501
:100C9000EB270A128A11C23083120313A7003A30DD
:100CA0000A168A15EB270A128A11C330831203131E
:100CB000A7000A30A0000030A1004208A3004108AC
:100CC000A2000A168A11F4240A128A11831203134D
:100CD0002008303E0A168A15EB270A128A11C43002
:100CE00083120313A7000A30F3000030F400420817
:100CF000F6004108F5000A168A1145240A128A11E5
:100D00007308303E0A168A15EB270A128A11C5307D
:100D100083120313A7003A300A168A15EB270A122A
:100D20008A11C63083120313A7000A30A0000030D6
:100D3000A1004408A3004308A2000A168A11F42463
:100D40000A128A11831203132008303E0A168A15EC
:100D5000EB270A128A11C73083120313A7000A3047
:100D6000F3000030F4004408F6004308F5000A16CA
:100D70008A1145240A128A117308303E0A168A1510
:100D8000EB270A128A11831203134E080319C92E86
:100D9000CA2EA42CF52EB33083120313A000913079
:100DA000A100C030A2000A168A11A8230A128A11D3
:100DB000A42CB33083120313A0009130A100C330E0
:100DC000A2000A168A11A8230A128A11A42CB33091
:100DD00083120313A0009130A100C630A2000A16AE
:100DE0008A11A8230A128A11A42C8316031323083C
:100DF000003A0319FC2EA42C2208003A0319CB2E2A
:100E0000013A0319D92E033A0319E72EA42C08003E
:100E100083120313AC0005302906031D102F112F78
:100E20001D2F0A168A15A1270A128A11831203138D
:100E3000D1010F30C8000030C90037302C06031D27
:100E4000222F232F362F51080319272F282F362F13
:100E50000F30C8000030C9000A168A15A1270A12EF
:100E60008A11013083120313D102512F2F302C0627
:100E7000031D3B2F3C2F512F043051020318412FEB
:100E8000422F512F0F30C8000030C9000A168A15B2
:100E9000A1270A128A110130FF007F088312031371
:100EA000D10704305106031D562F572F8A2FC0300B
:100EB000A7002A300A168A15EB270A128A11831214
:100EC00003135108AA002A07D53E840083130008A3
:100ED000A000840A00088403A1008230A2000A1640
:100EE0008A11A8230A128A11831203135108AA0037
:100EF0002A07D73E840083130008A000840A000854
:100F00008403A100C230A2000A168A11A8230A1283
:100F10008A11BC2F8030A7002A300A168A15EB27C9
:100F20000A128A11831203135108AA002A07D73E16
:100F3000840083130008A000840A00088403A10031
:100F40008230A2000A168A11A8230A128A1183127B
:100F500003135108AA002A07D93E8400831300080E
:100F6000A000840A00088403A100C230A2000A166F
:100F70008A11A8230A128A11831203135108080048
:100F8000F70004307706031DC62FC72FFB2FFF3055
:100F9000F800FF30F900FF3083160313E400FF3040
:100FA000E5009D3083120313A0009030A100803033
:100FB000A2000A168A11A8230A128A11AC308312E1
:100FC0000313A0009030A100C030A2000A168A11BD
:100FD000A8230A128A114D3083120313A500193079
:100FE000A4004F30A300A30BF32FA40BF32FA50BEA
:100FF000F32F1130FC2F22300800FF34FF3401346E
:10100600F500F401751C082809280D287308FF004F
:101016007F08F4070310F30D0310F50C7508031D84
:1010260015281628052874080800003083120313B3
:10103600AB000030AA000030A9000030A800230849
:10104600220421042004031929282A287728AC0120
:10105600AC0A3A280130F3000310A00DA10DA20D31
:10106600A30DF30B2F280130FF007F08AC07A31F49
:101076003D283E282D280130F3000310A80DA90DA8
:10108600AA0DAB0DF30B402823082702031D552894
:1010960022082602031D552821082502031D55286E
:1010A60020082402031C5828592868282008A4026E
:1010B6002108031C210FA5022208031C220FA602E9
:1010C6002308031C230FA702281401300310A30CC6
:1010D600A20CA10CA00CFF3E031D69280130AC0236
:1010E600031D762877283E282B08A3002A08A2008D
:1010F6002908A1002808A000080083120313A101F3
:10110600F41F862887288E28F309F409F30A0319A1
:10111600F40AA101A10AF61F912892289B28F50935
:10112600F609F50A0319F60A0130FF007F08A10641
:10113600A201A301730874040319A228A328DA28BC
:10114600A001A00AB12801300310F30DF40DFF3EF3
:10115600031DA7280130FF007F08A007F41FB4284D
:10116600B528A62801300310A20DA30DFF3E031DCE
:10117600B62874087602031DC22873087502031C7C
:10118600C528C628CD287308F5027408031CF60383
:10119600F602221401300310F40CF30CFF3E031D7B
:1011A600CE280130A002031DD928DA28B528210847
:1011B6000319DE28DF28E428A209A309A20A0319D5
:1011C600A30A2308F4002208F3000800C3308312A0
:1011D6000313A100CC30A000A00BEF28A10BEF2831
:1011E6000000F30133300A168A110F240A128A15F9
:1011F6001B3083120313A1009D30A000A00B012910
:10120600A10B01290629F30133300A168A110F248E
:101216000A128A15A53083120313A000A00B112908
:101226001429F30133300A168A110F240A128A157B
:101236001C291D290000F30102300A168A110F2409
:101246000A128A15A53083120313A000A00B2929C0
:101256002C29F30128300A168A110F240A128A153E
:10126600A53083120313A000A00B37293A29F301F6
:1012760001300A168A110F240A128A1504308312C5
:101286000313A1003D30A000A00B4729A10B47295D
:10129600F3010C300A168A110F240A128A15A5309A
:1012A60083120313A000A00B5629592908008312A4
:1012B6000313B800780A031D6429790A031D6429FB
:1012C600652971291730A0009030A100C030A20016
:1012D6000A168A11A8230A128A15632A08302906D3
:1012E600031D762977297829D00137303806031D62
:1012F6007D297E2986295008031982298329862972
:101306000130D0029D292F303806031D8B298C29E8
:101316009D297908803A803C031D9329780850025C
:101326000318962997299D290130FF007F0883120B
:101336000313D00783120313B901BA010A30F3006D
:101346008312031350080A128A1503200A128A15FB
:10135600053E83120313B70039082C3E8400390872
:1013660037070A168A11C6220A128A1583138000C5
:10137600013083120313B9070318BA0A0030BA07FB
:101386003A08803AFF0080307F02031DCC290A30DC
:101396003902031CCF29D029A129C0308312031397
:1013A600A7000A30F3000030F4005008AA00AB0191
:1013B6002A08F5002B08F6000A168A1183260A1257
:1013C6008A157308303E0A168A15EB270A128A1503
:1013D600C23083120313A7002C080A168A15EB27BE
:1013E6000A128A15C33083120313A7002D080A16A2
:1013F6008A15EB270A128A15C43083120313A70035
:101406003A300A168A15EB270A128A15C530831256
:101416000313A7002E080A168A15EB270A128A1547
:10142600C63083120313A7002F080A168A15EB2766
:101436000A128A15C73083120313A7003A300A1618
:101446008A15EB270A128A15C83083120313A700E0
:1014560030080A168A15EB270A128A15C930831234
:101466000313A70031080A168A15EB270A128A15F4
:10147600CB3083120313A70032080A168A15EB270E
:101486000A128A15CC3083120313A70033080A16F2
:101496008A15EB270A128A15CE3083120313A7008A
:1014A60034080A168A15EB270A128A15CF308312DA
:1014B6000313A70035080A168A15EB270A128A15A0
:1014C6000800FF3083120313B400FF30B500B001EB
:1014D600780A031D722A790A031D722A732A7D2A45
:1014E6002930F4009030F5000A168A1176220A1285
:1014F6008A15AD2B0030F4009030F5000A168A11DB
:1015060076220A128A150D300A168A1571270A12D2
:101516008A15742B013083120313B4070318B50A16
:101526000030B507B201B3010A30F3000030F40011
:1015360034083207F50035080318350A3307F60074
:101546000A168A1183260A128A157408831203134F
:10155600B3007308B200B601B7010A30F300831274
:10156600031332080A128A1503200A128A158312F7
:1015760003133607053EB1003608263E84003108BF
:101586000A168A11C6220A128A15831380000130B0
:1015960083120313B6070318B70A0030B7073708D4
:1015A600803AFF0080307F02031DDB2A0A303602B4
:1015B600031CDE2ADF2AB02A831203133408303EC6
:1015C6000A168A1571270A128A1520300A168A15F4
:1015D60071270A128A1520300A168A1571270A12EF
:1015E6008A158312031326080A168A1571270A120A
:1015F6008A158312031327080A168A1571270A12F9
:101606008A153A300A168A1571270A128A15831224
:10161600031328080A168A1571270A128A158312D7
:10162600031329080A168A1571270A128A153A30F1
:101636000A168A1571270A128A15831203132A08B5
:101646000A168A1571270A128A15831203132B08A4
:101656000A168A1571270A128A1520300A168A1563
:1016660071270A128A1520300A168A1571270A125E
:101676008A15831203132C080A168A1571270A1273
:101686008A15831203132D080A168A1571270A1262
:101696008A1520300A168A1571270A128A152030F3
:1016A6000A168A1571270A128A15831203132E0841
:1016B6000A168A1571270A128A15831203132F0830
:1016C6000A168A1571270A128A150A300A168A1509
:1016D60071270A128A150D300A168A1571270A1201
:1016E6008A15831203133508803AA3007908803AD5
:1016F6002302031D802B78083402031C832B842BC2
:101706008D2ACA3083120313A0009030A1008030C6
:10171600A2000A168A11A8230A128A156D308312AE
:101726000313A0009030A100C030A2000A168A114F
:10173600A8230A128A15273083120313A5000D3039
:10174600A4002530A300A30BA62BA40BA62BA50B48
:10175600A62BAD2B080083120313B1002903031D2A
:10176600B52BB62BC92BD20183160313C701C801AB
:10177600C901CA01033083120313B2003F30B1001E
:10178600053083160313A4000030A5008316031347
:1017960024082504031DD02BD12BD32B0330552D24
:1017A6003730831203133106031DDA2BDB2BFD2B97
:1017B600043052020318E02BE12BFD2B5208C73EE2
:1017C60084003130831380005208C43EA7002A30BB
:1017D6000A168A15EB270A128A150130FF007F08C0
:1017E60083120313D207053083160313A4000030B7
:1017F600A500192C2F303106031D022C032C192CA1
:10180600043052020318082C092C192C5208C73E22
:1018160084003030831380005208C43EA7002A306B
:101826000A168A15EB270A128A15F02B0430831242
:101836005206031D1F2C202C552DB30133082D3EB7
:10184600840033080A168A11C6220A128A158313DF
:1018560080000130FF007F0883120313B3070430B2
:101866003302031C372C382C212CC730F3000430EC
:10187600F4000030F5002D300A168A1182250A126E
:101886008A1573087404031D492C4A2C732C0A16F6
:101896008A15A1270A128A15F3010C300A168A1135
:1018A6000F240A128A15143083120313A0009130F4
:1018B600A1008230A2000A168A11A8230A128A15EC
:1018C600333083120313AC00BB30AB00DF30AA0009
:1018D600AA0B6B2CAB0B6B2CAC0B6B2C0130552D68
:1018E600013083120313B2023208031D7B2C7C2CB9
:1018F600ED2C0A168A15A1270A128A15F3010C3057
:101906000A168A110F240A128A157D3083120313D0
:10191600A0009030A1008030A2000A168A11A823E8
:101926000A128A157A3083120313A0009130A1009F
:10193600C030A2000A168A11A8230A128A15AF30EF
:1019460083120313A0009130A100CD30A2000A1625
:101956008A11A8230A128A153C3083120313C80081
:101966000030C900E42CC930A7000A30F30000306B
:10197600F4004908F6004808F5000A128A15802086
:101986000A128A157308303E0A168A15EB270A12C0
:101996008A15CA3083120313A7000A30F3000030F9
:1019A600F4004908F6004808F5000A168A1183264D
:1019B6000A128A157308303E0A168A15EB270A1290
:1019C6008A158312031348084904031DEB2CEC2CDB
:1019D600B62C2C2D0A168A15A1270A128A15F30190
:1019E6000C300A168A110F240A128A15E83083125F
:1019F6000313A0009030A1008230A2000A168A11BB
:101A0600A8230A128A15C03083120313A7003208CE
:101A1600303E0A168A15EB270A128A1549308312B8
:101A26000313A0009130A100C230A2000A168A1149
:101A3600A8230A128A15333083120313AC00BB3075
:101A4600AB00DF30AA00AA0B262DAB0B262DAC0B64
:101A5600262D0A168A15A1270A128A15F73083122F
:101A66000313A0009030A1008130A2000A168A114B
:101A7600A8230A128A15F301C4300A168A110F2404
:101A86000A128A15F3010F300A168A110F240A1258
:101A96008A1583120313D201053083160313A4009B
:101AA6000030A500080083120313B2002903031DAA
:101AB6005D2D5E2D7E2DCC01CB01CA01831603134D
:101AC600C301C401C501C601BF01C001C101C201F4
:101AD600BB01BC01BD01BE013F3083120313B2003E
:101AE600053083160313A4000030A5000130E6007C
:101AF60083120313D3008316031324082504031D3E
:101B0600852D862D882D0330FF2F37308312031342
:101B16003206031D8F2D902DB22D04304C02031872
:101B2600952D962DB22D4C08C33E8400313083137B
:101B360080004C08C43EA7002A300A168A15EB27F7
:101B46000A128A150130FF007F0883120313CC079F
:101B5600053083160313A4000030A500CE2D2F30C8
:101B66003206031DB72DB82DCE2D04304C020318B6
:101B7600BD2DBE2DCE2D4C08C33E840030308313C0
:101B860080004C08C43EA7002A300A168A15EB27A7
:101B96000A128A15A52D043083124C06031DD42D76
:101BA600D52DFE2FF3010C300A168A110F240A12C6
:101BB6008A1583120313B10131082D3E84003108C2
:101BC6000A168A11C6220A128A158313800001306A
:101BD600FF007F0883120313B10704303102031C90
:101BE600F52DF62DDF2DC330F3000430F400003060
:101BF600F5002D300A168A1182250A128A157308F5
:101C06007404031D072E082EB32F831203135308E3
:101C160003190E2E0F2E332E0A168A15A1270A1225
:101C26008A153B3083120313A0009030A100803048
:101C3600A2000A168A11A8230A128A15F301C430D3
:101C46000A168A110F240A128A15F3010F300A1692
:101C56008A110F240A128A1583120313D301772ED1
:101C660037303206031D382E392E5B2E04304B02D8
:101C760003183E2E3F2E5B2E4B08BF3E84003130AC
:101C8600831380004B08C43EA7002A300A168A1523
:101C9600EB270A128A150130FF007F08831203130F
:101CA600CB07053083160313A4000030A500772E5A
:101CB6002F303206031D602E612E772E04304B0224
:101CC6000318662E672E772E4B08BF3E84003030F1
:101CD600831380004B08C43EA7002A300A168A15D3
:101CE600EB270A128A154E2E043083124B06031D6B
:101CF6007D2E7E2EFE2FF3010C300A168A110F243C
:101D06000A128A1583160313660803198B2E8C2E66
:101D1600B02E0A168A15A1270A128A158D3083124B
:101D26000313A0009030A1008030A2000A168A1189
:101D3600A8230A128A15F301C4300A168A110F2441
:101D46000A128A15F3010F300A168A110F240A1295
:101D56008A1583160313E601F62E37308312031312
:101D66003206031DB72EB82EDA2E04304A020318A7
:101D7600BD2EBE2EDA2E4A08BB3E840031308313B8
:101D860080004A08C43EA7002A300A168A15EB27A7
:101D96000A128A150130FF007F0883120313CA074F
:101DA600053083160313A4000030A500F62E2F304D
:101DB6003206031DDF2EE02EF62E04304A020318EB
:101DC600E52EE62EF62E4A08BB3E840030308313FD
:101DD60080004A08C43EA7002A300A168A15EB2757
:101DE6000A128A15CD2E043083124A06031DFC2ED4
:101DF600FD2EFE2FBB30F3000430F4000030F5005A
:101E0600BF300A168A1182250A128A1573087404CD
:101E1600031D0E2F0F2F4F2F0A168A15A1270A1200
:101E26008A15F3010C300A168A110F240A128A1534
:101E3600BF30F6000030F70000300A168A1147233B
:101E46000A128A15DF3083120313A0009030A10016
:101E56008230A2000A168A11A8230A128A156F3048
:101E660083120313A0009130A100C230A2000A160B
:101E76008A11A8230A128A15333083120313AC0081
:101E8600BB30AB00DF30AA00AA0B472FAB0B472FA6
:101E9600AC0B472F0430FF2F0A168A15A1270A120A
:101EA6008A15F3010C300A168A110F240A128A15B4
:101EB6008E3083120313A0009130A1008030A2005F
:101EC6000A168A11A8230A128A152F3083120313C1
:101ED600A0009130A100C030A2000A168A11A823E2
:101EE6000A128A15273083120313AC000D30AB009B
:101EF6002530AA00AA0B7D2FAB0B7D2FAC0B7D2FB7
:101F0600842FDF3083120313A0009030A1008030AD
:101F1600A2000A168A11A8230A128A1563308312B0
:101F26000313A0009130A100C030A2000A168A1146
:101F3600A8230A128A15273083120313AC000D302A
:101F4600AB002530AA00AA0BA62FAB0BA62FAC0B15
:101F5600A62FAD2F0A168A15A1270A128A154D2F0C
:101F66000A168A15A1270A128A15F3010C300A16D9
:101F76008A110F240A128A15D93083120313A0007E
:101F86009030A1008030A2000A168A11A8230A12F6
:101F96008A15273083120313AC000D30AB002530B1
:101FA600AA00AA0BD42FAB0BD42FAC0BD42FDB2F4C
:101FB600BB3083120313A0009030A100C230A200F0
:101FC6000A168A11A8230A128A15273083120313C8
:101FD600AC000D30AB002530AA00AA0BF02FAB0BDE
:101FE600F02FAC0BF02FF72F0A168A15A1270A122D
:101FF6008A150130FF2F80300800233420345434F2
:1020060049344D34453420342034203420342034AF
:10201600203420342034453456342034203453348C
:1020260050340A340D3400344E344F3420346C347A
:102036006F346734733420346134763461346934F0
:102046006C34613462346C34653400344E346F342D
:1020560020346C346F34673473342034613476340E
:10206600613469346C34613462346C346534003400
:1020760045346E3474346534723420344E346534E9
:1020860077342034503461347334733477346434A1
:10209600003423342034543449344D344534203408
:1020A6002034203420342034453420342034533432
:1020B60050340034543469346D3465342034283453
:1020C600483448343A344D344D343A345334533426
:1020D60029340034533475346334633465347334CB
:1020E6007334663475346C346C3479342E342E344F
:1020F6002E34003459346F347534203461347234DC
:102106006534203462346C346F3463346B34653434
:1021160064340034523465342D3465346E3474348A
:102126006534723420345034613473347334773404
:102136006434003420344C346F34673473342034C0
:1021460043346C3465346134723465346434203419
:102156000034203453347534633463346534733453
:102166007334663475346C346C347934203400340A
:102176004C346F346734673469346E3467342034D2
:102186004F34753474342E342E342E3400344C349B
:102196006F346734203444346F3477346E346C349F
:1021A6006F346134643465346434003457347234C3
:1021B6006F346E346734203450346134733473347E
:1021C60077346F34723464340034573472346F3475
:1021D6006E34673420347034613473347334773436
:1021E6006F3472346434003445346E347434653478
:1021F60072342034503461347334733477346F342A
:102206007234643400344334683461346E34673471
:102216006534203450346134733473347734643421
:1022260000344C346F34673469346E34203473347C
:10223600753463346334653473347334003454341E
:1022460069346D34653420346334683461346E34F3
:1022560067346534643400344E346F347434203457
:102266004D34613474346334683469346E3467349D
:10227600003444346F3477346E346C346F346134E4
:10228600643420346C346F3467340034613474340D
:10229600743465346D347034743420346C3465347D
:1022A60066347434003453347534633463346534BB
:1022B60073347334663475346C346C347934003466
:1022C6004E346F34743420344334683461346E349D
:1022D60067346534643400344334683461346E34AE
:1022E6006734653464342E342E342E340034773417
:1022F600613469347434203466346F347234203473
:10230600003443346C3465346134723420346C34B4
:102316006F34673400345034613473347334773433
:102326006F34723464347334003453346534743423
:102336002034743469346D34653400345634693469
:102346006534773420346C346F3467340034313478
:10235600303431343034003473346534633400340B
:1023660020342034003443342034003447343134AC
:10237600003447343234003447343334003447347D
:102386003434003443344C34003447344E3400344F
:102396004734523400344334543400340A168A1510
:1023A60087270A168A118316031311150800C834E5
:1023B6009134CB349134B9349134BC349134BF3434
:1023C6009134C2349134A13491343C349134843400
:1023D600913498349134063491344F344E34003469
:1023E600FF34FF340134F5000A168A1552270A16FF
:1023F6008A11A0300A168A1566270A168A117508E8
:102406000A168A1566270A168A1174080A168A1584
:1024160066270A168A110A168A11D1210A168A1106
:102426000800F5000A168A1552270A168A11D030B6
:102436000A168A1566270A168A1175080A168A1553
:1024460066270A168A1174080A168A1566270A1656
:102456008A110A168A11D1210A168A110800F30078
:102466000A168A1587270A168A11831603139115E9
:102476000A168A1587270A168A1183120313130868
:10248600F4007303031D482A492A4D2A83160313B1
:102496009116502A83160313911211167408080018
:1024A60083120313A1002108A0007408F600730824
:1024B600F500F30A0319F40A7608FF00750884008C
:1024C6000A168A1500200A168A11FF0020088400C1
:1024D6000130A0077F08831780000008031D742AB7
:1024E600752A582A08008B2A7508FF00740884008C
:1024F6000A168A1500200A168A110A168A157127E5
:102506000A168A110130F4070318F50A0030F50798
:10251600750883120313FF00740884000A168A15CF
:1025260000200A168A11003A031D9A2A9B2A772A46
:102536000800F4007408031DA12AA22AA72A831200
:10254600031306083F39C52A3F30831203130605D5
:10255600F3003F3073060319B12AB22AB92A7A0862
:102566000319B62AB72AB92AFA01A22A3F30060564
:10257600F3003F307306031DC12AC22AC42AFA019A
:10258600FA0A3F300800F5000A168A1552270A167D
:102596008A11A0300A168A1566270A168A11750846
:1025A6000A168A1566270A168A110A168A155B27DD
:1025B6000A168A11A1300A168A1566270A168A1182
:1025C60000300A168A1132220A168A11F6000A16F5
:1025D6008A11D1210A168A1176080800831203137C
:1025E600A001A101731CF82AF92A012B7508831290
:1025F6000313A0070318A10A7608A10701300310E8
:10260600F50DF60DFF3E031D022B01300310F40CF1
:10261600F30CFF3E031D092B73087404031D142BD2
:10262600152BF52A831203132108F4002008F30062
:102636000800F5000A168A1552270A168A11D030A4
:102646000A168A1566270A168A1175080A168A1541
:1026560066270A168A110A168A155B270A168A1130
:10266600D1300A168A1566270A168A1100300A160C
:102676008A1132220A168A11F6000A168A11D12107
:102686000A168A117608080083120313A000672B26
:102696007708FF00760884000A168A1500200A16B5
:1026A6008A11F40020080A168A11F6210A168A11E0
:1026B6000130F6070318F70A0030F7070130FF006C
:1026C6007F0883120313A0077708FF0076088400AB
:1026D6000A168A1500200A168A11003A031D742B61
:1026E600752B4B2B080083120313981718162D0809
:1026F600F4002E08F5002F08F6003008F700043025
:102706000310F40DF50DF60DF70DFF3E031D832B9B
:102716007708A3007608A2007508A1007408A00037
:102726000130A7003130A6002D30A5000030A400EE
:102736000A128A1518200A168A1183120313200812
:10274600FF3E8316031399000800F3018312031357
:1027560022080A168A110F240A168A11CA2BF301B7
:10276600F30A2108FF00200884000A168A150020B3
:102776000A168A110A168A110F240A168A110130BE
:1027860083120313A0070318A10A0030A1078312BE
:1027960003132108FF00200884000A168A1500206A
:1027A6000A168A11003A031DD92BDA2BB22B080020
:1027B6008312031394152D08F4002E08F5002F0834
:1027C600F6003008F70002300310F40DF50DF60D93
:1027D600F70DFF3E031DE72B7708A3007608A2003E
:1027E6007508A1007408A0000130A7003130A600CA
:1027F6002D30A5000030A4000A128A1518200A16EA
:102806008A11831203132008FF3E831603139300D5
:102816008312031394160800F6007318132C172C52
:102826008312031309151A2C831203130911760850
:10283600F03988008914A630F400F40B202C00002F
:1028460083120313891076080F39F400033003103E
:10285600F40DFF3E031D2A2C0310740D8800891405
:10286600A630F400F40B352C0000831203138910F4
:102876001B30F5009E30F400F40B3F2CF50B3F2C7B
:10288600000008007308740403194A2C4B2C7A2C98
:10289600F701F70A592C01300310F30DF40DFF3E32
:1028A600031D4F2C0130FF007F08F707F41F5C2C37
:1028B6005D2C4E2C74087602031D632C730875027A
:1028C600031C662C672C6D2C7308F5027408031C18
:1028D600F603F60201300310F40CF30CFF3E031D61
:1028E6006E2C0130F702031D792C7A2C5D2C7608AC
:1028F600F4007508F3000800003083120313B000DB
:102906000130AF008630AE00A030AD000A168A1145
:10291600DB230A168A110A168A15C5270A168A1192
:102926000A168A157C270A168A110A168A1543275B
:102936000A168A110A168A153D270A168A110A16D8
:102946008A1594270A168A11003083120313B000E1
:102956000030AF002530AE008030AD000A168A1177
:1029660076230A168A118B170B1708000130831677
:102976000313E4070318E50A0030E5070A30640686
:102986006504031DC72CC82CCA2CE401E5010A30D6
:10299600F30064080A128A1503200A168A11053EF6
:1029A60083120313A100A730F6000030F7002108B8
:1029B6000A168A1147230A168A117908803AFF00F7
:1029C60080307F02031DE92C093078020318EC2CB5
:1029D600ED2CF32C0130F8070318F90A0030F9073B
:1029E600080083120313A501A60120082104031978
:1029F600FD2CFE2C352DA401A40A0C2D013003104C
:102A0600A00DA10DFF3E031D022D0130FF007F0822
:102A1600A407A11F0F2D102D012D01300310A50DA8
:102A2600A60DFF3E031D112D21082302031D1D2D9A
:102A360020082202031C202D212D282D2008A20269
:102A46002108031CA303A302251401300310A10CC3
:102A5600A00CFF3E031D292D0130A402031D342DB9
:102A6600352D102D2608A1002508A0000800831288
:102A76000313A2002208A300642D0130F5020030E2
:102A8600031CF603F6027408A1007308A000F30AFB
:102A96000319F40A2108FF00200884000A168A1583
:102AA60000200A168A11FF00230884000130A307BC
:102AB6007F08831380000008031D622D632D642D9B
:102AC600732D75087604031D692D6A2D402D732D0F
:102AD60023088400831380010130FF007F08A307C9
:102AE6000130F5020030031CF603F602750A031DD9
:102AF600802D760A031D802D812D6B2D08008312F3
:102B06000313A0000130F4020030031CF503F502A4
:102B1600740A031D922D750A031D922D932DA42D63
:102B2600F301F401D32D0130FF007F08A007013027
:102B3600FF007F08F3070130F4020030031CF503A1
:102B4600F50220088400831300080319AB2DAC2D71
:102B5600C52D7308840000080319B22DB32DC52DA9
:102B6600740875040319B82DB92DC52D7308840092
:102B76000008F60020088400000876060319C42D14
:102B8600C52D962D730884000008F60020088400E1
:102B96000008F70076087702F300F401031CF4033B
:102BA600080083120313AC004E30A0009030A10041
:102BB6008230A2000A168A11A8230A168A110A165A
:102BC6008A113B270A168A11831203132C08A000C8
:102BD6000130A100CB30A2000A168A11A8230A16DA
:102BE6008A11CE3083120313A7000A30F300003097
:102BF600F4002908AA00AB012A08F5002B08F60004
:102C06000A128A1580200A168A117308303E0A169F
:102C16008A15EB270A168A11CF3083120313A700F1
:102C26000A30F3000030F4002908AA00AB012A0894
:102C3600F5002B08F6000A168A1183260A168A1151
:102C46007308303E0A168A15EB270A168A11080001
:102C56000A168A119D270A168A11B230F30000302F
:102C6600F4000630F5000030F600A7300A168A1187
:102C76003A250A168A11831203132408F30025083D
:102C8600F4000230F5000030F600AD300A168A1165
:102C96003A250A168A110A30F3000030F40083122E
:102CA60003132608A700A8012708F5002808F60040
:102CB6000A128A1580200A168A117308303E831676
:102CC6000313AF000A30F3000030F400831203133D
:102CD6002608A700A8012708F5002808F6000A1606
:102CE6008A1183260A168A117308303E8316031347
:102CF600B000B1010A168A11B9240A168A11080011
:102D060083120313A101F61F892E8A2E912EF5092F
:102D1600F609F50A0319F60AA101A10AF41F942E71
:102D2600952E9A2EF309F409F30A0319F40A730887
:102D3600740403199F2EA02ECF2EA001A00AAE2E3A
:102D460001300310F30DF40DFF3E031DA42E0130D8
:102D5600FF007F08A007F41FB12EB22EA32E740821
:102D66007602031DB82E73087502031CBB2EBC2EFB
:102D7600C22E7308F5027408031CF603F60201302E
:102D86000310F40CF30CFF3E031DC32E0130A0020A
:102D9600031DCE2ECF2EB22E21080319D32ED42EEC
:102DA600D92EF509F609F50A0319F60A7608F4008C
:102DB6007508F3000800831203138C1CE32EE42E1F
:102DC600322F013083160313A0070318A10A00301F
:102DD600A107E2302006043003192106031DF42E54
:102DE600F52E2F2F831203134908803AFF008030F7
:102DF6007F02031D002F01304802031C032F042FFE
:102E06000C2FFF3083120313C8070318C90AFF30BB
:102E1600C907831603132508803AFF0080307F0216
:102E2600031D172F01302402031C1A2F1B2F2B2FD3
:102E36008312031348084904031D222F232F2B2F27
:102E4600FF3083160313A4070318A50AFF30A5074E
:102E560083160313A001A101831203138C107208B9
:102E6600FF0071088A00700E8300FE0E7E0E0900B8
:102E76000A168A119D270A168A11C2308312031375
:102E8600A7008316031332080A168A15EB270A16BB
:102E96008A11C33083120313A70083160313330862
:102EA6000A168A15EB270A168A11C43083120313F1
:102EB600A7003A300A168A15EB270A168A11C5307A
:102EC60083120313A7008316031334080A168A1500
:102ED600EB270A168A11C63083120313A70083163E
:102EE600031335080A168A15EB270A168A11C73006
:102EF60083120313A7003A300A168A15EB270A161F
:102F06008A11C83083120313A700831603133608E9
:102F16000A168A15EB270A168A11C930831203137B
:102F2600A7008316031337080A168A15EB270A1615
:102F36008A11080002300A168A111C230A168A1101
:102F460083120313C50001300A168A111C230A16C0
:102F56008A1183120313C60000300A168A111C2335
:102F66000A168A1183120313C7004508F7000430B6
:102F76000310F70CFF3E031DBB2F77080339303EC5
:102F860083160313B2008312031345080F39303E2C
:102F960083160313B300831203134608F7000430A5
:102FA6000310F70CFF3E031DD32F77080739303E79
:102FB60083160313B4008312031346080F39303EF9
:102FC60083160313B500831203134708F700043072
:102FD6000310F70CFF3E031DEB2F77080739303E31
:102FE60083160313B6008312031347080F39303EC6
:102FF60083160313B700B8010800FF1B0A288313C2
:103006007F1883170008840A0319FF0A08007F083F
:0E3016007F398A000408840A0319FF0A820029
:103E7A008316031306083F388600080083160313C7
:103E8A009F17831203131F14080064008001840A19
:103E9A0004060319003404064B2F0A168A158727CD
:103EAA000A168A1583160313111408000A168A11B2
:103EBA00D1210A168A150A168A1552270A168A1550
:103ECA000800F3000A168A1587270A168A15730846
:103EDA008312031393000800F30073088312031379
:103EEA0099000C1E792F7A2F762F0C120800831650
:103EFA0003138801091189100A128A15E9200A1682
:103F0A008A1508008316031314198C2F8D2F872FF7
:103F1A0011081F39031D922F932F872F0800831230
:103F2A00031312149214FA308316031392008C149A
:103F3A008312031312110800F30101300A168A11C1
:103F4A000F240A168A15043083120313A1003D3088
:103F5A00A000A00BAE2FA10BAE2F080083120313F3
:103F6A001F151F19B92FBA2FB62F1E08F600831670
:103F7A0003131E08F5007608F4007508F30008001C
:103F8A0000300A168A111C230A168A15F7007708C8
:103F9A007F39F7007708F40000300A168A111422D4
:103FAA000A168A1508007E088A007F0882000A1607
:103FBA008A15D8270A168A158000840A04087D06FD
:103FCA0003190034FF0A0319FE0ADC2F83120313B4
:103FDA00A800F30127080A168A110F240A168A155F
:103FEA00F301F30A8312031328080A168A110F240D
:0E3FFA000A168A150800FF3FFF3FFF3FFF3FFA
:02400E00FB3F76
:00000001FF
